:100000000A128A11FA2F00308A000408840A820733
:10001000003448346F346C34613420346D347534BA
:080020006E3464346F340034C7
:100BC0007030831603138F0088018312031388018A
:100BD0008316031789010800F400740884000A12C0
:100BE0008A1103200A128A11003A031908007408B6
:100BF00084000A128A1103200A128A110A128A1129
:100C000052260A128A110130F3007308F407ED2D01
:100C100074037504031D182E7608803EF0007708D3
:100C20000318013E003EF1000A128A11292608002D
:100C3000023074067504031D08007608C03EF000FB
:100C400077080318013E003EF1000A128A11292696
:100C500008008312031308110330F3009730F200E9
:100C6000F20B302EF30B302E352EF0307005F200E3
:100C70008312031308080F3972048800881588113D
:100C80007008F20004300310F20DFF3E031D432EE6
:100C9000F0307205F30008080F39730488008815D6
:100CA00088110800F2008312031308150330F100C5
:100CB0009730F000F00B5A2EF10B5A2E5F2EF030C9
:100CC0007205F0008312031308080F3970048800BE
:100CD000881588117208F00004300310F00DFF3EF3
:100CE000031D6D2EF0307005F10008080F397104F6
:100CF00088008815881108003430F500F130F400C0
:100D0000F40B802EF50B802E852E3030F000003055
:100D1000F1000A128A1129260A128A110D30F500F3
:100D2000FB30F400F40B922EF50B922E972E303000
:100D3000F0000030F1000A128A1129260A128A11E5
:100D40000330F5009730F400F40BA42EF50BA42E1D
:100D5000A92E3030F0000030F1000A128A11292645
:100D60000A128A112830F0000030F1000A128A11AC
:100D700029260A128A110C30F0000030F1000A1204
:100D80008A1129260A128A110130F0000030F10080
:100D90000A128A1129260A128A110430F000003042
:100DA000F1000A128A11292608004030F0000030B4
:100DB000F1000A128A1129260A128A110E300A122B
:100DC0008A1152260A128A111F300A128A115226DB
:100DD0000A128A1116300A128A1152260A128A1130
:100DE0001C300A128A1152260A128A111C300A1269
:100DF0008A1152260A128A111E300A128A115226AC
:100E00000A128A111F300A128A1152260A128A11F6
:100E10000E300A128A1152260A128A114830F00046
:100E20000030F1000A128A1129260A128A110E30A6
:100E30000A128A1152260A128A111F300A128A11C6
:100E400052260A128A1117300A128A1152260A12E1
:100E50008A111F300A128A1152260A128A111C3076
:100E60000A128A1152260A128A111F300A128A1196
:100E700052260A128A111F300A128A1152260A12A9
:100E80008A110E300A128A11522608000A128A119B
:100E9000E0250A128A110A128A117C260A128A1186
:100EA0000A128A11D5260A128A110130F400003084
:100EB000F5000030F600F7000A128A1108260A121F
:100EC0008A110130F4000030F5000530F6000030E2
:100ED000F7000A128A1108260A128A1101300A1232
:100EE0008A11EC250A128A110130F4000030F50055
:100EF0000030F600F7000A128A1108260A128A1139
:100F00000130F4000030F5000030F600F7000A125E
:100F10008A1108260A128A11FB01FC017C08803A1A
:100F2000FF0080307F02031D972F10307B020318D3
:100F3000E62F00300A128A1152260A128A11103046
:100F4000F0000030F1000A128A1129260A128A11D3
:100F50000330FA000830F9007730F800F80BAE2FB4
:100F6000F90BAE2FFA0BAE2F01300A128A1152265E
:100F70000A128A111030F0000030F1000A128A11B2
:100F800029260A128A110330FA000830F900773056
:100F9000F800F80BC92FF90BC92FFA0BC92F203015
:100FA0000A128A1152260A128A110130FB0703180D
:100FB000FC0A0030FC077C08803AFF0080307F028A
:100FC000031DE42F10307B02031C992F0130F40025
:100FD0000030F5000530F6000030F7000A128A11E3
:100FE00008260A128A1101300A128A11EC250A1207
:100FF0008A11802FFB01FC0183010A128A11462FFE
:04400E00E4EFFFFFDD
:00000001FF
