:060000000A128A11FC2F18
:100EB8007830831603138F0083120313850183167A
:100EC80003178801F0308316031385000800F1002A
:100ED8006400831603178C186C2F7108831203178C
:100EE8008D003F30F0007008831603178C050C1432
:100EF80003100C1803140030031801308312031771
:100F08000C080800F200831603178C18872F720844
:100F1800831203178D0070088C003F30F1007108B0
:100F2800831603178C058312031303108B1B0314FA
:100F38008B13831603170C1555308D00AA308D00BE
:100F48008C140C1183120313031C08008B17080060
:100F58000A128A115C270A128A1100300A128A11B1
:100F68006B270A128A1183120313850001300A12B3
:100F78008A116B270A128A11F300F4017308F5002D
:100F88007408F6007608803AFF0080307F02031D5F
:100F9800CF2F04307502031CD72F0130831203139F
:100FA8008500F501F60183120313851FD72F851BD2
:100FB800DB2F0508F300730785000130F5070318D8
:100FC800F60A0030F6070508F3007308F000003051
:100FD8000A128A1186270A128A117508F300730803
:100FE800F00001300A128A1186270A128A11C62FC8
:080FF80083010A128A11AC2FDB
:04400E00E4EFFFFFDD
:00000001FF
