:060000000A128A11FA2F1A
:100F32008130831203139F00831603139F0108005D
:100F42000A128A11B6270A128A110A128A119927DD
:100F52000A128A1100300A128A11D0270A128A1143
:100F62007108F6007008F500AB2F78308316031372
:100F72008F00013085000130831603178800890134
:100F820083120313850181309F000D30F100FB3085
:100F9200F000F00BCA2FF10BCA2FCF2F0800F4007C
:100FA20008307402031CD82FF001F1010800C5308B
:100FB200F2007208831203139F057408F2000230D4
:100FC2000310F20DFF3E031DE12F0310720DF3001B
:100FD20073089F04EC2FED2FEE2F831203139F143F
:100FE2009F18F12F1E08F100831603131E08F0004C
:0E0FF2000800F501F60183010A128A11A12FF1
:04400E00E4EFFFFFDD
:00000001FF
