:060000000A128A11122809
:10000800FE00030EF1000408F2000A08F300831250
:1000180003137F08F4000A128A118C280A128A1125
:1000280015280A128A11E2200A128A11A0000A125F
:100038008A11E3200A128A11A1000A128A11E0200B
:100048000A128A11F9000A128A11E120FA00F7014E
:10005800F80183010A128A1131280A128A11C6206E
:100068000A128A110A30F5000030F6007608803A44
:10007800FF0080307F02031D4328103075020318EB
:100088006628760883120313A1007508A000823041
:1000980083120313A300DD30A200A20B5128A30B87
:1000A80051280130F5070318F60A0030F6077608DC
:1000B800803AFF0080307F02031D642810307502EB
:1000C800031C45280F30F5000030F6007608803A0A
:1000D800FF0080307F02031D73280A307502031C5D
:1000E8003628760883120313A1007508A000823011
:1000F80083120313A300DD30A200A20B8128A30BF7
:100108008128FF30F5070318F60AFF30F6076A283A
:100118000B1DB928373081000130F7070318F80A9A
:100128000030F8077A08803AF0007808803A7002C0
:10013800031DA028770879020318A7288312031340
:100148000814F701F801831203132108803AF0001C
:100158007808803A7002031DB32877082002031834
:10016800B8288312031308100B11740883120313A1
:10017800FF0073088A0072088400710E8300FE0E67
:100188007E0E09007830831603138F008312031341
:1001980088018316031789018316031388018112C6
:1001A800011281150111811001108B178B16503027
:1001B8008312031381000800C83400340A34003461
:04400E00E4EFFFFFDD
:00000001FF
