:020000040000FA
:060000000A128A11F62F1E
:100C3600831203138815EF30F0007008880508004A
:100C4600831203130816F730F000700888050800B1
:100C56000A30F0000030F1000A128A1135260A1215
:100C66008A1108003C2E0130F0020030031CF1030B
:100C7600F10270087104031D412E422E362E080023
:100C86000A128A119D270A128A11ED30F400893062
:100C9600F5000A128A1146270A128A11512E0A12E3
:100CA6008A110028F7000830770203185B2E5C2EA5
:100CB600692E7708B83EF600760883120313A10062
:100CC60000300A128A11C5260A128A1108007A2EE5
:100CD6002C30F0000130F1000A128A1135260A1272
:100CE6008A110130F2020030031CF303F30272088A
:100CF6007304031D7F2E802E6B2E0800F3000A124C
:100D06008A112B260A128A118312031323087306EB
:100D160086000814FD30F2007208880508150130B7
:100D2600F0000030F1000A128A1135260A128A11E3
:100D3600FB30F20072088312031388050800F300E3
:100D46000A128A112B260A128A11730883120313B8
:100D56008600FE30F20072088805FD30F200720847
:100D6600880508150130F0000030F1000A128A11DA
:100D760035260A128A11FB30F20072088312031319
:100D860088050800F50075080319CA2ECB2ED02E4B
:100D96007503031DCF2ED02EF82E7508031DD42EF5
:100DA600D52EDB2E0A128A111B260A128A11E02E74
:100DB6000A128A1123260A128A117508F400740889
:100DC60083120313A0004030F4007408A200210827
:100DD6000A128A11A2260A128A1183120313220802
:100DE6000A128A11A2260A128A110800FA010A12A8
:100DF6008A111B260A128A1140300A128A11A2266B
:100E06000A128A117A08B83E0A128A11A2260A1212
:100E16008A11F90140307906031D122F132F252F51
:100E26000A128A1123260A128A1140300A128A11DE
:100E3600A2260A128A117A08B83E0A128A11A22636
:100E46000A128A1100300A128A1181260A128A11A0
:100E56000130F8007808F90780307902031C342F36
:100E6600352F0D2F0130F8007808FA0708307A027E
:100E7600031C3E2F3F2FFA2E00300A128A115526E8
:100E86000A128A110800F8010A128A111B260A1290
:100E96008A1140300A128A11A2260A128A1178088B
:100EA600B83E0A128A11A2260A128A11F7014030A8
:100EB6007706031D5F2F602F722F0A128A112326D1
:100EC6000A128A1140300A128A11A2260A128A11BF
:100ED6007808B83E0A128A11A2260A128A117508E3
:100EE60083120313FF00740884000A128A15002077
:100EF6000A128A110A128A1181260A128A110130EF
:100F0600F4070318F50A0030F5070130F6007608F5
:100F1600F70780307702031C912F922F5A2F01304A
:100F2600F6007608F80708307802031C9B2F9C2FE2
:100F3600472F0800831603138601E030FB007B0869
:100F460088050A128A111B260A128A113F300A12D4
:100F56008A11A2260A128A110A128A1123260A1255
:100F66008A113F300A128A11A2260A128A110A3001
:100F7600F2000030F3000A128A116A260A128A1158
:100F86000A128A111B260A128A11C0300A128A1105
:100F9600A2260A128A110A128A1123260A128A1115
:100FA600C0300A128A11A2260A128A1100300A12C9
:100FB6008A11C5260A128A110A128A11F9260A12FC
:100FC6008A1183120313A001B830FB007B08A1002D
:100FD6004030FB007B08A20000300A128A11C526A9
:100FE6000A128A11080083120313A001A101A201AB
:100FF600A30183010A128A11432EFF1B0A288313B9
:101006007F1883170008840A0319FF0A08007F085F
:101016007F398A000408840A0319FF0A8200003413
:101026000034003400340034003400342F340034EB
:1010360000340034073400340734003414347F3469
:1010460014347F34143424342A347F342A3412344A
:101056002334133408346434623436344934553412
:101066002234503400340534033400340034003460
:101076001C342234413400340034413422341C34CC
:101086000034143408343E34083414340834083434
:101096003E340834083400340034A034603400345C
:1010A60008340834083408340834003460346034B2
:1010B60000340034203410340834043402343E340E
:1010C6005134493445343E34003442347F3440345C
:1010D6000034423461345134493446342134413485
:1010E60045344B3431341834143412347F341034CC
:1010F600273445344534453439343C344A3449344C
:101106004934303401347134093405340334363407
:101116004934493449343634063449344934293457
:101126001E34003436343634003400340034563439
:101136003634003400340834143422344134003454
:101146001434143414341434143400344134223432
:101156001434083402340134513409340634323438
:101166004934593451343E347C34123411341234F7
:101176007C347F3449344934493436343E3441343E
:101186004134413422347F344134413422341C34D6
:101196007F3449344934493441347F34093409347D
:1011A600093401343E344134493449347A347F3485
:1011B6000834083408347F34003441347F344134F1
:1011C60000342034403441343F3401347F34083411
:1011D6001434223441347F34403440344034403473
:1011E6007F3402340C3402347F347F3404340834C0
:1011F60010347F343E344134413441343E347F34FC
:1012060009340934093406343E3441345134213426
:101216005E347F340934193429344634463449342B
:10122600493449343134013401347F3401340134D2
:101236003F344034403440343F341F34203440344B
:1012460020341F343F344034383440343F34633420
:1012560014340834143463340734083470340834CE
:1012660007346134513449344534433400347F34CF
:101276004134413400345534AA345534AA345534F3
:101286000034413441347F340034043402340134B0
:101296000234043440344034403440344034003462
:1012A6000334053400340034203454345434543474
:1012B60078347F344834443444343834383444340D
:1012C60044344434203438344434443448347F3449
:1012D6003834543454345434183408347E3409348D
:1012E600013402341834A434A434A4347C347F3456
:1012F6000834043404347834003444347D344034BF
:1013060000344034803484347D3400347F341034E7
:10131600283444340034003441347F3440340034BB
:101326007C3404341834043478347C34083404347B
:101336000434783438344434443444343834FC3453
:1013460024342434243418341834243424341834FB
:10135600FC347C34083404340434083448345434BB
:1013660054345434203404343F3444344034203428
:101376003C344034403420347C341C3420344034F3
:1013860020341C343C344034303440343C3444340F
:1013960028341034283444341C34A034A034A03407
:1013A6007C344434643454344C344434003410347F
:1013B6007C348234003400340034FF34003400348A
:1013C600003482347C34103400340034063409345A
:1013D60009340634FF34FF34FF34FF34FF34FF345E
:1013E600FF34FF34FF34FF34FF34FF34FF34FF345F
:1013F600FF34FF34FF34FF34FF34FF34FF34FF344F
:10140600FF34FF34C0340034003400340034003478
:10141600003400340034003400340134033403341F
:10142600073407340F341F341F343F347F347F347E
:10143600FF34FF34FF34FF34FF34FF34FF34FF340E
:10144600FF34FF34FF34FF34FF34FF34FF34FF34FE
:10145600FF34FF34FF34FF34FF34FF34FF34FF34EE
:10146600FF34FF34FF34FF34FF34FF34FF34FF34DE
:10147600FF34FF34FF34FF34FF34FF34FF34FF34CE
:10148600FF34FF34FF34FF34FF34FF34FF34FF34BE
:10149600FF34FF34FF34FF34FF34FF34FF34FF34AE
:1014A600FF34FF34FF34FF34FF347F347F343F345E
:1014B6003F341F341F341F340F340F340F340734B6
:1014C600073403340334033403340134FF34FF3464
:1014D600FF34FF34FF34FF34FF34FF34FF34FF346E
:1014E600FF34FF34FF34FF34FF34FF34FF34FF345E
:1014F600FF34FF34FF34FF34FF34FF34FF34FF344E
:10150600FF34FF34FF34FE34F834E03480340034E2
:101516000034003400340034003400340034003425
:101526000034003400340034003400340034003415
:10153600003401340334033407340F341F343F348A
:101546007F34FF34FF34FF34FF34FF34FF34FF347D
:10155600FF34FF34FF34FF34FF34FF34FF34FF34ED
:10156600FF34FF34FF34FF34FF34FF34FF34FF34DD
:10157600FF34FF34FF34FF34FF34FF34FF34FF34CD
:10158600FF34FF34FF34FF347F347F343F343F343D
:101596001F341F340F340F34073407340334033435
:1015A6000134013401340034003400340034003492
:1015B6000034003400340034003400340034003485
:1015C6000034003400348034F034FF34FF34FF3408
:1015D600FF34FF34FF34FF34FF34FF34FF34FF346D
:1015E600FF34FF34FF34FF34FF34FF34FF34FF345D
:1015F600FF34FF34FF34FF34FF34FF34FF34FF344D
:10160600FF34FF34FF34FF34FF34FF34FF34FF343C
:10161600FC34F834F034E034C034003400340034A0
:101626000034003400340034003400340034003414
:101636000034003400340034003400340034003404
:1016460000340034013401340134013401340134EE
:1016560001340034003400340034003400340034E3
:1016660000340034003400340034003400340034D4
:1016760000340034003400340034003400340034C4
:1016860000340134003400340034003400340034B3
:1016960000340034003400340034003400340034A4
:1016A6000034003400340034003400340034003494
:1016B600003400340034003400340034C034E034E4
:1016C600F034FC34FE34FF34FF34FF34FF34FF348F
:1016D600FF34FF34FF34FF34FF34FF34FF34FF346C
:1016E600FF34FF34FF34FF34FF34FF34FF34FF345C
:1016F600FF34FF34FF34FF34FF34FF34FF34FF344C
:10170600FF34FF34FF34FF34FF34FF34FF34FF343B
:10171600FF34FF34FF34FF34FF34FF34FE34FC342F
:10172600F834F034303408340434063400340034E9
:101736000034003400340034003400340034003403
:1017460000340034003400340034003400340034F3
:1017560000340034003400340034003400340034E3
:1017660000340034003400340034003400340034D3
:1017760000340034003400340034003400340034C3
:1017860000340034003400340034003400340034B3
:1017960000340034003400340034003400340034A3
:1017A600003410342034C0348034C034C034E034C3
:1017B600F034F834F834FC34FE34FF34FF34FF34AC
:1017C600FF34FF34FF34FF34FF34FF34FF34FF347B
:1017D600FF34FF34FF34FF34FF34FF34FF34FF346B
:1017E600FF34FF34FF34FF34FF34FF34FF34FF345B
:1017F600FF34FF34FF34FF34FF34FF34FF34FF344B
:10180600FF34FF34FF34FF34FF34FF34FF34FF343A
:10181600FF34FF34FF34FF34FF34FF34FF341F340A
:10182600033400340034003400340034003400340F
:10183600003400348034F034983408340834983452
:10184600F834F034E034003400340034003400342A
:1018560000340034003400340034003400340034E2
:1018660000340034003400340034003400340034D2
:10187600003400340034003400340034C034F03412
:10188600083408340834F834F834F034E0340034DA
:1018960000340034003400340034003400340034A2
:1018A6000034003400340034013407341F34FF346C
:1018B600FF34FF34FF34FF34FF34FF34FF34FF348A
:1018C600FF34FF34FF34FF34FF34FF34FF34FF347A
:1018D600FF34FF34FF34FF34FF34FF34FF34FF346A
:1018E600FF34FF34FF34FF34FF34FF34FF34FF345A
:1018F600FF34FF34FF34FF34FF34FF34FF34FF344A
:10190600FF34FF34FF34FF34FF34FF34FF34FF3439
:10191600FF34FF34FF34FF343F34073400340034DF
:101926000034003400340034003400340034003411
:1019360000340034013407340F340F341F341F349D
:101946000F340F34073400340034003400340034CC
:101956000034003400348034C034C034C0348034A1
:101966008034003400340034003400340034003451
:1019760000340034003400340034003403340734B7
:101986000F341F341F341F340F340734033400342C
:1019960000340034003400340034003400340034A1
:1019A6000034003400340034003400340034003491
:1019B6000F347F34FF34FF34FF34FF34FF34FF34F9
:1019C600FF34FF34FF34FF34FF34FF34FF34FF3479
:1019D600FF34FF34FF34FF34FF34FF34FF34FF3469
:1019E600FF34FF34FF34FF34FF34FF34FF34FF3459
:1019F600FF34FF34FF34FF34FF34FF34FF34FF3449
:101A0600FF34FF34FF34FF34FF34FF34FF34FF3438
:101A1600FF34FF34FF340734C034F034F834FC3478
:101A2600FC34FC34FE34FE34FC34FC34F834F83434
:101A3600E034003400340034003400340034003420
:101A460000340034003400340034003400340034F0
:101A560000340034003401340134013481348134DB
:101A660081348034803480340034003400340034CF
:101A760000340034003400340034003400340034C0
:101A8600003400340034003400340034E034F034E0
:101A9600F834FC34FC34FC34FE34FE34FC34FC34C0
:101AA600FC34F834F034E0340034003400340034CC
:101AB6000034003407347F34FF34FF34FF34FF34FE
:101AC600FF34FF34FF34FF34FF34FF34FF34FF3478
:101AD600FF34FF34FF34FF34FF34FF34FF34FF3468
:101AE600FF34FF34FF34FF34FF34FF34FF34FF3458
:101AF600FF34FF34FF34FF34FF34FF34FF34FF3448
:101B0600FF34FF34FF34FF34FF34FF34FF34FF3437
:101B1600FF34FF34FF34C034003403340734073451
:101B26000F340F340F340F340F34073407340334B3
:101B360001340034003400340034003400340034FE
:101B460000340034003400340034003400340034EF
:101B560000347C34863403340134013401340134D6
:101B66000134013401340134013403340E34F834C1
:101B760000340034003400340034003400340034BF
:101B860000340034003400340034003401340734A7
:101B96000F340F341F341F341F341F341F341F34C7
:101BA6000F340F3407340134003400340034003469
:101BB600003400340034003407347F34FF34FF34FB
:101BC600FF34FF34FF34FF34FF34FF34FF34FF3477
:041BD600FF34FF34A5
:04400E00E2EFFFFFDF
:00000001FF
