:100000000A128A11F02FFF1B0D2883137F18831704
:100010000008840A0319FF0A080000308A00040857
:10002000840A820700343234203445347434613415
:10003000703461343A3420344934203463346F34BA
:100040006E347334743461346E3474346534003413
:1000500031342034453474346134703461343A348A
:1000600020345634203463346F346E347334743433
:1000700061346E34743465340034503472346F3407
:1000800063346534733461346E3464346F342E34C5
:100090002E342E3400344534733470346534723465
:1000A00065342E342E342E3400346D3456340034FE
:10047A008130831203139F00831603139F01080020
:10048A007808F0007908F100F2018E30FB007B0851
:10049A00F300F4010A128A1128247008F80071087E
:1004AA00F9007208FA00080003308316031788005F
:1004BA007830831603138F00831203138501831682
:1004CA0003138801F33085000230F2000430F10092
:1004DA00BA30F000F00B6F2AF10B6F2AF20B6F2A79
:1004EA000000080074087504031D872A7608803EF8
:1004FA00F00077080318013E003EF1000A128A1143
:10050A00E022080074037504031D08007608C03E43
:10051A00F00077080318013E003EF1000A128A1122
:10052A00E0220800740883120313FF007308840092
:10053A000A128A1103200A128A11003A03190800C2
:10054A00740883120313FF00730884000A128A11C5
:10055A0003200A128A110A128A1109230A128A111D
:10056A000130F3070318F40A972A83120313A90028
:10057A002908FD007D08A800A51FD32A2D30FD00FB
:10058A00290884007D08831380000130FD007D085E
:10059A00A907A409A509A40A0319A50A2508F900A7
:1005AA002408F8002708FB002608FA0029080A127E
:1005BA008A11942408008312031308110330F300EC
:1005CA009730F200F20BE72AF30BE72AEC2AF03015
:1005DA007005F2008312031308080F3972048800A9
:1005EA00881588117008F20004300310F20DFF3EDE
:1005FA00031DFA2AF0307205F30008080F39730454
:10060A008800881588110800F20083120313081560
:10061A000330F1009730F000F00B112BF10B112B86
:10062A00162BF0307205F0008312031308080F39F5
:10063A0070048800881588117208F00004300310CD
:10064A00F00DFF3E031D242BF0307005F100080861
:10065A000F3971048800881588110800003071026A
:10066A00083003197002031C3D2BF001F101080048
:10067A00C530F2007208831203139F057008F20056
:10068A0002300310F20DFF3E031D462B0310720DBC
:10069A00F30073089F040330F200F20B522B83120B
:1006AA0003139F149F18572B1E08F200F3017208B8
:1006BA00F0007308F10008007008710403198E2B0A
:1006CA00F501F50AF11B752B01300310F00DF10D40
:1006DA00FF3E031D6A2B0130F4007408F507672BEF
:1006EA0071087302031D7B2B70087202031C832B93
:1006FA007008F2027108031CF303F30201300310BD
:10070A00F10CF00CFF3E031D842B0130F502031D92
:10071A00752B7308F1007208F0000800F501F60164
:10072A00700871040319CA2BF701F70AF11BA92BE8
:10073A0001300310F00DF10DFF3E031D9E2B013019
:10074A00F4007408F7079B2B01300310F50DF60D22
:10075A00FF3E031DAA2B71087302031DB62B7008F6
:10076A007202031CBF2B7008F2027108031CF30308
:10077A00F302751401300310F10CF00CFF3E031D57
:10078A00C02B0130F702031DA92B7608F10075086A
:10079A00F00008003430F500F130F400F40BD32BEC
:1007AA00F50BD32BD82B3030F0000030F1000A12B1
:1007BA008A11E0220A128A110D30F500FB30F4008A
:1007CA00F40BE52BF50BE52BEA2B3030F00000306B
:1007DA00F1000A128A11E0220A128A110330F50086
:1007EA009730F400F40BF72BF50BF72BFC2B30307A
:1007FA00F0000030F1000A128A11E0220A128A116E
:10080A002830F0000030F1000A128A11E0220A12A0
:10081A008A110C30F0000030F1000A128A11E0222D
:10082A000A128A110130F0000030F1000A128A110E
:10083A00E0220A128A110430F0000030F1000A1294
:10084A008A11E022080073080319302C7208710417
:10085A007004031D432C0030F0000030F10000301A
:10086A00F20008000130F5007508F30701300310A3
:10087A00F20CF10CF00CFF3E031D3C2CFE3072050D
:10088A0003195E2C372C0130F5007508F307013087
:10089A00F007003003180130F10700300318013067
:1008AA00F20701300310F20CF10CF00CFF3E031DAD
:1008BA00572CFF30720503196D2C482C0130F302B6
:1008CA0001300310F00DF10DF20DFF3E031D662CF1
:1008DA00F11B732C023073020318632C73187B2CE0
:1008EA00FF30F0057F30F105FF30F2050310F30CFD
:1008FA007308F500F601F70110300310F50DF60D37
:10090A00F70DFF3E031D822C7508F0047608F104EA
:10091A007708F204740803190800F2170800831212
:10092A000313A3007908A1007808A0007B08F1004E
:10093A007A08F0002108F3002008F2000A128A114E
:10094A0093230A128A11710883120313A1007008F3
:10095A00A0000130FC007C08A30720082104031D25
:10096A009B2C23088400831380010130A3027B0897
:10097A00F1007A08F0007908F3007808F2000A1208
:10098A008A1161230A128A117008FC007C088312FA
:10099A000313A2007B08F1007A08F0007908F3003B
:1009AA007808F2000A128A1193230A128A1171082E
:1009BA00F9007008F8000A30831203132202031C9C
:1009CA00EA2C0730FC007C08A2073030FC007C08C7
:1009DA00A2072208FC00230884007C0883138000F5
:1009EA000130A30278087904031DBC2C0130FC00F5
:1009FA007C08A3070800831203133008B4003108E7
:100A0A00B5003208B6000310350D360DB7003708A9
:100A1A00BD003D08031D1A2D0030B3000030B2009E
:100A2A000030B1000030B00008003008B4003108CE
:100A3A00B5003208B60017300310B60CB50CB40C6A
:100A4A00FF3E031D212D3408B7003708B800B1173F
:100A5A00FF30B005FF30B1050030B2053008B900EB
:100A6A003108BA003208BB00BC018E30BD02BD1F7E
:100A7A005C2D3D08803A8F3E03184C2D0030B300A0
:100A8A000030B2000030B1000030B0000800013080
:100A9A000310BC0CBB0CBA0CB90CFF3E031D4D2D48
:100AAA000130B4003408BD070319772D4C2D1830D6
:100ABA003D02031C742D0030B3000030B200003038
:100ACA00B1000030B00008000130B4000310B90DC5
:100ADA00BA0DBB0DBC0DB40B6B2D0130BD023D0828
:100AEA00031D692D38080319852DB909BA09BB09EF
:100AFA00BC09B90A0319BA0A0319BB0A0319BC0AC1
:100B0A003C08B3003B08B2003A08B1003908B0000B
:100B1A000800831203132008A6002108A700220850
:100B2A00A8000310270D280DA9002908AA002A08E1
:100B3A00031DA62D0030A0000030A1000030A20045
:100B4A0008002308A6002408A7002508A800031007
:100B5A00270D280DA9002908AF002F08031DBC2D59
:100B6A000030A0000030A1000030A20008002F08C9
:100B7A007B3EA6002608AA072008A6002108A7008F
:100B8A002208A80010300310A80CA70CA60CFF3EE0
:100B9A00031DC82D2608A9002908AF002308A600AE
:100BAA002408A7002508A80010300310A80CA70CD9
:100BBA00A60CFF3E031DDA2D2608A9002908AF0658
:100BCA008030A6002608AF05A117A417FF30A30599
:100BDA00FF30A4050030A5050030AB000030AC00A2
:100BEA000030AD000730A6002608AE00201C0B2EF0
:100BFA002308AB07240803110318240A031DAC07B2
:100C0A00250803110318250A031DAD070130031037
:100C1A00A20CA10CA00CFF3E031D0C2E01300310E8
:100C2A00A30DA40DA50DFF3E031D142E0130AE0227
:100C3A00031DFB2D0930A6002608AE00201C332E0A
:100C4A002308AB07240803110318240A031DAC0761
:100C5A00250803110318250A031DAD0701300310E7
:100C6A00A20CA10CA00CFF3E031D342E0130031070
:100C7A00AD0CAC0CAB0CFF3E031D3C2E0130AE029A
:100C8A00031D232E2B08F0002C08F1002D08F2007A
:100C9A002A08A6002608F3002F08A7002708F40050
:100CAA000A128A112824700883120313A0007108FB
:100CBA00A1007208A20008000A128A1159220A1217
:100CCA008A11003083120313C1000030C2000030C1
:100CDA00C3000A128A113D220A128A110A128A11C3
:100CEA00CF230A128A110130F0000030F1000A12F3
:100CFA008A11E0220A128A110030F400F50000304D
:100D0A00F600F7000A128A1177220A128A112B308A
:100D1A00F3008030F4000A128A1197220A128A110B
:100D2A000130F4000030F5000030F600F7000A1236
:100D3A008A1177220A128A111630F3008030F400E1
:100D4A000A128A1197220A128A1104308312031393
:100D5A0085000030F000F1000A128A1133230A12CA
:100D6A008A11003071021B3003197002031CAE2E67
:100D7A0008308312031385000130F0000030F100BF
:100D8A000A128A11E0220A128A110030F400F500D0
:100D9A000030F600F7000A128A1177220A128A1125
:100DAA000130F3008030F4000A128A1197220A12E5
:100DBA008A110130F4000030F5000030F600F70027
:100DCA000A128A1177220A128A113930F300803006
:100DDA00F4000A128A1197220A128A110130F400C9
:100DEA000030F5000930F6000030F7000A128A11C7
:100DFA0077220A128A1134300A128A1109230A1236
:100E0A008A110B3083120313C0002630BF005D30F5
:100E1A00BE00BE0B0E2FBF0B0E2FC00B0E2F0130C4
:100E2A00F4000030F5000930F6000030F7000A122D
:100E3A008A1177220A128A1133300A128A11092377
:100E4A000A128A110B3083120313C0002630BF0026
:100E5A005D30BE00BE0B2F2FBF0B2F2FC00B2F2FC5
:100E6A000130F4000030F5000930F6000030F700D8
:100E7A000A128A1177220A128A1132300A128A1148
:100E8A0009230A128A110B3083120313C000263079
:100E9A00BF005D30BE00BE0B502FBF0B502FC00BE2
:100EAA00502F0130F4000030F5000930F600003010
:100EBA00F7000A128A1177220A128A1131300A12AD
:100ECA008A1109230A128A110B3083120313C000F4
:100EDA002330BF00C430BE00BE0B712FBF0B712F71
:100EEA00C00B712F00000130F0000030F1000A122F
:100EFA008A11E0220A128A110030F000F1000A1267
:100F0A008A1133230A128A117108F9007008F8004D
:100F1A000A128A1145220A128A11780883120313C7
:100F2A00A3007908A4007A08A500DD30A0009C304F
:100F3A00A1004130A2000A128A118E250A128A11D2
:100F4A00831203132008B0002108B1002208B2005E
:100F5A000A128A1100250A128A1183120313310810
:100F6A00C5003008C4004508A5004408A4000A309A
:100F7A00A6000030A70047300A128A11BA220A12C4
:100F8A008A110030F400F5000030F600F7000A126A
:100F9A008A1177220A128A114730F3000030F400CE
:100FAA000A128A1197220A128A110030F400F500F7
:100FBA000530F6000030F7000A128A1177220A1269
:100FCA008A114330F3008030F4000A128A11972202
:100FDA000A128A11EF2F83120313C101C201C3013E
:100FEA00C401C501C601C701C801C901CA018301FB
:060FFA000A128A11612EAB
:04400E00E4EFFFFFDD
:00000001FF
