:08000000803102288731FC2F3A
:100F6200230019080319080019080800F0002300DB
:100F72009E1CB82F70089A000800203023009B00A6
:100F82001E129E169D171D16080070302100990032
:100F920023008C018D0121008C018D0108000310BA
:100FA2002000911A03140030093DF200F301720887
:100FB200F0007308F10008008731C62787318731B6
:100FC200BE2787318230F400DE30890BE62FF40B26
:100FD200E62F8731D0278731700871040319EA2F71
:100FE2008731B1278731F4007408F500750887311D
:0E0FF200B7278731EA2FF50120008731DD2F68
:020000040001F9
:04000E00E2C1FFDE6E
:00000001FF
