:060000000A128A11122809
:10000800FE00030EF0000408F1000A08F200831253
:1000180003137F08F3000A128A1157280A128A115B
:10002800152883010A128A1119280A128A119820A0
:100038000A128A110A128A1184200A128A110130BE
:100048008312031387000B30F6002630F5005D306D
:10005800F400F40B2D28F50B2D28F60B2D28342849
:1000680002308312031387000B30F6002630F500A8
:100078005D30F400F40B3E28F50B3E28F60B3E28C5
:10008800452804308312031387000B30F60026300E
:10009800F5005D30F400F40B4F28F50B4F28F60BF4
:1000A8004F28562823288C1E72280A128A11AC2041
:1000B8000A128A11313A031D642883120313861722
:1000C8000A128A11AC200A128A11303A031D6F28CD
:1000D800831203138613831203138C120B18861DC5
:1000E800792886197528803086067308FF007208FB
:1000F8008A0071088400700E8300FE0E7E0E0900CF
:100108000C308316031399001812831203139817DF
:100118008316031398168312031318168B170B17DD
:10012800831603138C1608007830831603138F0088
:1001380083120313860187018316031789017F3011
:10014800831603138600F83087008B159615080070
:0E015800831203131A08031908001A0808007E
:04400E00E4EFFFFFDD
:00000001FF
