:060000000A128A11F82F1C
:100DE80020340030831203138C1A01300800831258
:100DF80003131A08031908001A080800F0008316DC
:100E08000313981C032F700883120313990008001A
:100E180020308316031399001812831203139817AE
:100E280083160313981683120313181608007830D4
:100E3800831603138F008312031388018316031785
:100E480089018801303083160313880008000A12CC
:100E58008A111B270A128A110A128A110C270A12F0
:100E68008A110230F3000430F200BA30F100F10BBD
:100E78003B2FF20B3B2FF30B3B2F0000D32F0130FE
:100E88008312031388005230F3002B30F200003035
:100E9800F100F10B4D2FF20B4D2FF30B4D2F0000EE
:100EA800D02F02308312031388005230F3002B3006
:100EB800F2000030F100F10B5F2FF20B5F2FF30B04
:100EC8005F2F0000D02F0430831203138800081E00
:100ED8006B2F1530F3004B30F200BE30F100F10BF0
:100EE800732FF20B732FF30B732F00000130831253
:100EF800031388005230F3002B30F2000030F10069
:100F0800F10B842FF20B842FF30B842F0000083091
:100F18008312031388000330F3000830F20077309F
:100F2800F100F10B952FF20B952FF30B952FD02F86
:100F38000830831203138800881EA02F1F30F30087
:100F48007130F2001E30F100F10BA82FF20BA82F20
:100F5800F30BA82F000001308312031388005230CE
:100F6800F3002B30F2000030F100F10BB92FF20B37
:100F7800B92FF30BB92F0000043083120313880034
:100F88000330F3000830F2007730F100F10BCA2F7C
:100F9800F20BCA2FF30BCA2F8312031388010A120C
:100FA8008A11F5260A128A11003A0319D32F0A1258
:100FB8008A11FB260A128A11F1007108F4007408DC
:100FC8000A128A1102270A128A117408313A03197F
:100FD800432F033A0319552F013A0319672F073A8C
:100FE80003199C2FD32FD32F0A128A11F426F40049
:080FF80083010A128A112B2F5C
:04400E00E2EFFFFFDF
:00000001FF
