:060000000A128A11122809
:10000800FE00030EF0000408F1000A08F200831253
:1000180003137F08F3000A128A11FE280A128A11B4
:10002800152883010A128A11C0288030831203130D
:100038008600861D252831300A128A1109210A12E4
:100048008A1183120313061D2F2832300A128A11CF
:1000580009210A128A1183120313861C39283330A6
:100068000A128A1109210A128A1183120313061C23
:10007800432841300A128A1109210A128A11403094
:10008800831203138600861D4F2834300A128A1102
:1000980009210A128A1183120313061D59283530C3
:1000A8000A128A1109210A128A1183120313861C63
:1000B800632836300A128A1109210A128A1183121A
:1000C8000313061C6D2842300A128A1109210A12EC
:1000D8008A112030831203138600861D7928373051
:1000E8000A128A1109210A128A1183120313061DA2
:1000F800832838300A128A1109210A128A118312B8
:100108000313861C8D2839300A128A1109210A1214
:100118008A1183120313061C972843300A128A1186
:1001280009210A128A111030831203138600861DD2
:10013800A3282A300A128A1109210A128A11831265
:100148000313061DAD2830300A128A1109210A123C
:100158008A1183120313861CB72823300A128A11C6
:1001680009210A128A1183120313061C080044305D
:100178000A128A11092108000A128A11DD200A12BE
:100188008A110A128A11EF200A128A110A128A1198
:1001980019200A128A110330F7008A30F600553008
:1001A800F500F50BD528F60BD528F70BD528DC2854
:1001B800CA287830831603138F008312031386012D
:1001C80087018316031789010F30831603138600EE
:1001D800FF30870008000C308316031399001812AB
:1001E80083120313981783160313981683120313A5
:1001F800181608007308FF0072088A007108840046
:10020800700E8300FE0E7E0E0900F400740883123F
:0E0218000313990083160313981808000E298B
:04400E00E4EFFFFFDD
:00000001FF
