:100000000A128A11F32FFF1B0D2883137F18831701
:100010000008840A0319FF0A080000308A00040857
:10002000840A82070034443449345334543441340C
:100030004E34433449344134003463346D34203415
:0200400000348A
:1009FC007830831603138F008312031388010130A0
:100A0C008316031388001030831203139000080020
:100A1C0074087504031D1E2D7608803EF0007708BF
:100A2C000318013E003EF1000A128A1177250800D6
:100A3C0074037504031D08007608C03EF0007708A7
:100A4C000318013E003EF1000A128A1177250800B6
:100A5C00740883120313FF00730884000A128A11AE
:100A6C0003200A128A11003A031908007408831231
:100A7C000313FF00730884000A128A1103200A1260
:100A8C008A110A128A11A0250A128A110130F30761
:100A9C000318F40A2E2D83120313A9002908FD0054
:100AAC007D08A800A51F6A2D2D30FD0029088400A3
:100ABC007D08831380000130FD007D08A907A4097F
:100ACC00A509A40A0319A50A2508F9002408F800A9
:100ADC002708FB002608FA0029080A128A11872722
:100AEC0008008312031308110330F3009730F2004F
:100AFC00F20B7E2DF30B7E2D832DF0307005F20062
:100B0C008312031308080F397204880088158811A2
:100B1C007008F20004300310F20DFF3E031D912DFE
:100B2C00F0307205F30008080F397304880088153B
:100B3C0088110800F2008312031308150330F1002A
:100B4C009730F000F00BA82DF10BA82DAD2DF03047
:100B5C007205F0008312031308080F397004880023
:100B6C00881588117208F00004300310F00DFF3E58
:100B7C00031DBB2DF0307005F10008080F3971040E
:100B8C008800881588110800700871040319F72D66
:100B9C00F501F50AF11BDE2D01300310F00DF10DFE
:100BAC00FF3E031DD32D0130F4007408F507D02D42
:100BBC0071087302031DE42D70087202031CEC2DE6
:100BCC007008F2027108031CF303F30201300310E6
:100BDC00F10CF00CFF3E031DED2D0130F502031D51
:100BEC00DE2D7308F1007208F00008008312031365
:100BFC0088140330FA009730F900F90B032EFA0B26
:100C0C00032E082E8312031388101014081C0C2EAC
:100C1C008E018F01081C192E61300F02A8300319A8
:100C2C000E02031C102E101061300F02A830031995
:100C3C000E02031808000F08AE000E08AD003A3083
:100C4C00F0000030F1002E08F3002D08F2000A121B
:100C5C008A117326710883120313B0007008AF0059
:100C6C000800F501F6017008710403196E2EF701E6
:100C7C00F70AF11B4D2E01300310F00DF10DFF3E64
:100C8C00031D422E0130F4007408F7073F2E01308B
:100C9C000310F50DF60DFF3E031D4E2E7108730269
:100CAC00031D5A2E70087202031C632E7008F20288
:100CBC007108031CF303F302751401300310F10CDB
:100CCC00F00CFF3E031D642E0130F702031D4D2E68
:100CDC007608F1007508F0000800F601F11F7D2E72
:100CEC00F009F109F00A0319F10AF601F60AF31FEB
:100CFC00882EF209F309F20A0319F30A0130F40001
:100D0C007408F606F701F801700871040319BF2E78
:100D1C00F501F50AF11B9E2E01300310F00DF10DBB
:100D2C00FF3E031D932E0130F4007408F507902E3E
:100D3C0001300310F70DF80DFF3E031D9F2E7108B7
:100D4C007302031DAB2E70087202031CB42E7008C4
:100D5C00F2027108031CF303F30277140130031041
:100D6C00F10CF00CFF3E031DB52E0130F502031DF6
:100D7C009E2E76080319C72EF709F809F70A0319EE
:100D8C00F80A7808F1007708F00008003430F50014
:100D9C00F130F400F40BD02EF50BD02ED52E3030D4
:100DAC00F0000030F1000A128A1177250A128A111C
:100DBC000D30F500FB30F400F40BE22EF50BE22EB7
:100DCC00E72E3030F0000030F1000A128A1177253E
:100DDC000A128A110330F5009730F400F40BF42E4C
:100DEC00F50BF42EF92E3030F0000030F1000A1221
:100DFC008A1177250A128A112830F0000030F10090
:100E0C000A128A1177250A128A110C30F000003070
:100E1C00F1000A128A1177250A128A110130F000AA
:100E2C000030F1000A128A1177250A128A11043057
:100E3C00F0000030F1000A128A11772508000A121E
:100E4C008A11FE240A128A110A128A11CC260A125D
:100E5C008A110030F400F5000330F6000030F70082
:100E6C000A128A110E250A128A110130F300803001
:100E7C00F4000A128A112E250A128A110A128A11FA
:100E8C00FC250A128A11831203133008A5002F08BF
:100E9C00A4000A30A6000030A70031300A128A11D3
:100EAC0051250A128A110130F4000030F50005308A
:100EBC00F6000030F7000A128A110E250A128A1168
:100ECC003130F3000030F4000A128A112E250A1278
:100EDC008A110B30F3008030F4000A128A112E258F
:100EEC000A128A11063083120313AC001330AB00C4
:100EFC00AD30AA00AA0B802FAB0B802FAC0B802F30
:100F0C00442F83120313A3007908A1007808A000D2
:100F1C007B08F1007A08F0002108F3002008F200A9
:100F2C000A128A1137260A128A11710883120313C6
:100F3C00A1007008A0000130FC007C08A307200869
:100F4C002104031D8E2F230884008313800101309C
:100F5C00A3027B08F1007A08F0007908F300780806
:100F6C00F2000A128A11CA250A128A117008FC00B2
:100F7C007C0883120313A2007B08F1007A08F000AE
:100F8C007908F3007808F2000A128A1137260A123F
:100F9C008A117108F9007008F8000A3083120313E3
:100FAC002202031CDD2F0730FC007C08A207303026
:100FBC00FC007C08A2072208FC00230884007C08A3
:100FCC00831380000130A30278087904031DAF2F2E
:100FDC000130FC007C08A307080083120313AD0149
:100FEC00AE01AF01B001B101B201B30183010A122C
:040FFC008A11252F02
:04400E00E4EFFFFFDD
:00000001FF
